:040000008031C9285A
:10000800803120007F08F7002100111C7028200093
:10001800111C70281110E0309700C0309600013094
:10002800C0070030C13D01304102F53003194002DC
:10003800031C2F28C001C10122000E0CF500750C0D
:100048000139F5000130F506F50DF50D0E087506B8
:10005800FB3975068E0001302000C4070030C53D0D
:1000680000304502323003194402031C3F28C40102
:10007800C501C601C60A730803195D280130F302D9
:10008800F308031D5D287108083A031D4E28F20184
:10009800F20A5D2823001D1953289D1C5B281D1298
:1000A8009D1300000000000023001D169D17F1019C
:1000B80020007408031970280130F402F408031DA5
:1000C80070280830F50075082000C700C801C80A64
:1000D80070280000000000002000911E9E282100CA
:1000E800911E9E2823001908F5007508F8000530B0
:1000F800F5007508F3000830710203189E28F2080D
:10010800031D9E287108283EF500F6012130F63DB2
:1001180075088600760887007808810028308600F0
:100128002130870001087006031D9E280130F50064
:100138007508F1072000941EC5282100941EC528C3
:1001480029001108F5007508F9000530F500750853
:10015800F4000830200047020318C528C808031D0A
:10016800C5287908F5004708203E860087017508EC
:10017800810020087006031DC5280130F5007508A8
:10018800C70777082000FF0009008031CB282830F6
:10019800840021308500C830FE000030FF00873120
:1001A8004C278031F001F101F201F301F401203014
:1001B8008400003085004930FE000030FF008731A0
:0801C8004C2720008531192DA0
:1002000000340034C134813440340134C03480348B
:1002100041340134C034803441340034C134813439
:1002200040340134C034803441340034C13481342A
:1002300040340034C134813440340134C03480341B
:1002400041340134C034803441340034C134813409
:1002500040340034C134813440340134C0348034FB
:1002600041340034C134813440340134C0348034EA
:1002700041340134C034803441340034C1348134D9
:1002800040340134C034803441340034C1348134CA
:1002900040340034C134813440340134C0348034BB
:1002A00041340034C134813440340134C0348034AA
:1002B00041340134C034803441340034C134813499
:1002C00040340034C134813440340134C03480348B
:1002D00041340134C034803441340034C134813479
:1002E00040340134C034803441340034C13481346A
:1002F00040340034C134813440340134C03480345B
:1003000041340134C034803441340034C134813448
:1003100040340034C134813440340134C03480343A
:1003200041340034C134813440340134C034803429
:1003300041340134C034803441340034C134813418
:1003400040340034C134813440340134C03480340A
:1003500041340134C034803441340034C1348134F8
:1003600040340134C034803441340034C1348134E9
:1003700040340034C134813440340134C0348034DA
:1003800041340034C134813440340134C0348034C9
:1003900041340134C034803441340034C1348134B8
:1003A00040340134C034803441340034C1348134A9
:1003B00040340034C134813440340134C03480349A
:1003C00041340134C034803441340034C134813488
:1003D00040340034C134813440340134C03480347A
:1003E00041340034C134813440340134C034803469
:1003F00041340134C034803441340034C134813458
:1004000040340034C034C1340134C33403340234C2
:10041000C234C63406340734C7340534C534C43452
:100420000434CC340C340D34CD340F34CF34CE34CA
:100430000E340A34CA34CB340B34C934093408348A
:10044000C834D83418341934D9341B34DB34DA3492
:100450001A341E34DE34DF341F34DD341D341C34D2
:10046000DC341434D434D5341534D734173416343A
:10047000D634D23412341334D3341134D134D0348A
:100480001034F03430343134F1343334F334F23462
:1004900032343634F634F7343734F53435343434D2
:1004A000F4343C34FC34FD343D34FF343F343E34CA
:1004B000FE34FA343A343B34FB343934F934F8340A
:1004C00038342834E834E9342934EB342B342A34F2
:1004D000EA34EE342E342F34EF342D34ED34EC3452
:1004E0002C34E43424342534E5342734E734E6343A
:1004F00026342234E234E3342334E134213420340A
:10050000E034A03460346134A1346334A334A234C1
:1005100062346634A634A7346734A5346534643451
:10052000A4346C34AC34AD346D34AF346F346E34C9
:10053000AE34AA346A346B34AB346934A934A83489
:1005400068347834B834B9347934BB347B347A3491
:10055000BA34BE347E347F34BF347D34BD34BC34D1
:100560007C34B43474347534B5347734B734B63439
:1005700076347234B234B3347334B1347134703489
:10058000B034503490349134513493345334523421
:1005900092349634563457349734553495349434D1
:1005A00054349C345C345D349D345F349F349E34C9
:1005B0005E345A349A349B345B3499345934583409
:1005C000983488344834493489344B348B348A34F1
:1005D0004A344E348E348F344F348D344D344C3451
:1005E0008C34443484348534453487344734463439
:1005F0008634823442344334833441348134803409
:1006000040342000ED01EE010310101803140030F7
:10061000093DE900EA016D086904EB006E086A040F
:10062000EC006B08ED006C08EE000310901803144A
:100630000030093DE900EA01E935EA0D6D08690479
:10064000EB006E086A04EC006B08ED006C08EE002D
:100650000310101903140030093DE900EA01E935DF
:10066000EA0DE935EA0D6D086904EB006E086A04CD
:10067000EC006B08ED006C08EE00031090190314F9
:100680000030093DE900EA01E935EA0DE935EA0DF6
:10069000E935EA0D6D086904EB006E086A04EC00A8
:1006A0006B08ED006C08EE000310101A0314003004
:1006B000093DE900EA01E90EEA0EF030EA056908B1
:1006C0000F39EA04F030E9056D086904EB006E08A3
:1006D0006A04EC006B08ED006C08EE000310901A41
:1006E00003140030093DE900EA010530E935EA0D5F
:1006F000890B762B6D086904EB006E086A04EC0028
:100700006B08ED006C08EE000310101B03140030A2
:10071000093DE900EA010630E935EA0D890B8C2B29
:100720006D086904EB006E086A04EC006B08ED00CC
:100730006C08EE000310901B03140030093DE90023
:10074000EA010730E935EA0D890BA22B6D0869042F
:10075000EB006E086A04EC006B08ED006C08EE001C
:10076000031025008C1803140030093D2000E90017
:10077000EA016908EA00E9016D086904EB006E0806
:100780006A04EC006B08ED006C08EE000310250015
:100790000C1903140030093D2000E900EA0109307A
:1007A000E935EA0D890BD02B6D086904EB006E0862
:1007B0006A04EC006B08ED006C08EE0003102500E5
:1007C0008C1903140030093D2000E900EA010A30C9
:1007D000E935EA0D890BE82B6D086904EB006E081A
:1007E0006A04EC006B08ED006C08EE0003102500B5
:1007F0000C1A03140030093D2000E900EA010B3017
:10080000E935EA0D890B002C6D086904EB006E08D0
:100810006A04EC006B08ED006C08EE000310250084
:100820008C1A03140030093D2000E900EA01690E2A
:10083000F039EA00E9016D086904EB006E086A040A
:10084000EC006B08ED006C08EE00031025000C1B9B
:1008500003140030093D2000E900EA010D30E935BC
:10086000EA0D890B2F2C6D086904EB006E086A04F1
:10087000EC006B08ED006C08EE00031025008C1BEB
:1008800003140030093D2000E900EA010E30E9358B
:10089000EA0D890B472C6D086904EB006E086A04A9
:1008A000EC006B08ED006C08EE00031025000D1A3B
:1008B00003140030093D2000E900EA010F30E9355A
:1008C000EA0D890B5F2C6D086904EB006E086A0461
:1008D000EC006B08ED006C08EE006E08C301C30766
:1008E0006D08C201C20708002000EB01EC014308BB
:1008F000EC01EC074208EB01EB076B18822C22009D
:100900008D16842C22008D1220006C08EA006B08E2
:10091000E900EA36E90C6918902C22000D16922C99
:1009200022000D1220006C08EA006B08E900EA368C
:10093000E90CEA36E90C6918A02C22008D15A22CCE
:1009400022008D1120006C08EA006B08E900EA36ED
:10095000E90CEA36E90CEA36E90C6918B22C2200F7
:100960000D15B42C22000D1120006C08EA006B0854
:10097000E9000430EA36E90C890BBA2C6918C32C5B
:1009800022008D14C52C22008D1020006C08EA0076
:100990006B08E9000530EA36E90C890BCB2C6918A5
:1009A000D42C22000D14D62C22000D1020006C082F
:1009B000EA006B08E9000630EA36E90C890BDC2C0A
:1009C0006918E52C22000C16E72C22000C122000DE
:1009D0006C08EA006B08E9000730EA36E90C890B7D
:1009E000ED2C6918F62C22008C16F82C22008C12A3
:1009F00020006C08EA006B08E9006A08E900EA01D7
:100A00006918052D22000F14072D22000F10200059
:100A10006C08EA006B08E9000930EA36E90C890B3A
:100A20000D2D6918162D22008F14080022008F103A
:100A3000080064302000E9000030EA0086314026DA
:100A40008531863189268531873186278531873101
:100A500064278531640020004608013A031D382DC3
:100A60008331012385318431742485312000C6010E
:100A7000290015193D2D951C452D151295130000C3
:100A80000000000029001516951723001D194A2D96
:100A90009D1C522D1D129D1300000000000023001C
:100AA0001D169D177208013A031D7D2D22000E0CA4
:100AB0002000EF00EF0C6F0C0139EF000130EF0662
:100AC000EF0DEF0DEF0D22000E0820006F06F73935
:100AD0006F0622008E008531A625853123001D1961
:100AE000732D9D1C7B2D1D129D1300000000000026
:100AF00023001D169D17F101F20120004808013A5C
:100B0000031D2A2D22000E0E01392000EF000130B6
:100B1000EF06EF0E22000E0820006F06EF396F0679
:100B200022008E00863117268531290015199A2D4D
:100B3000951CA22D1512951300000000000029003D
:100B4000151695172000C701C8012A2D8C30860084
:100B50002130870028308400213085000008C03F04
:100B60002830860021308700413101082000EE0046
:100B70008D308600213087006E0881002830860085
:100B80002130870042310108EE008E30860021308E
:100B900087006E08810028308600213087004331AD
:100BA0000108EE008F308600213087006E0881003A
:100BB000283086002130870044310108EE00903053
:100BC0008600213087006E088100283086002130A1
:100BD000870045310108EE00913086002130870002
:100BE0006E088100283086002130870046310108D8
:100BF000EE0092308600213087006E088100283098
:100C000086002130870047310108EE0093308600CE
:100C1000213087006E0881008C30EA002130EB0023
:100C20000830EC000030ED008631A42608002000DA
:100C30002008EE006E08C9002108EE006E08CA0008
:100C40002208EE006E08CB002308EE006E08CC00F0
:100C50002408EE006E08CD002508EE006E08CE00D8
:100C60002608EE006E08CF002708EE006E08D000C0
:100C70000830EA000030EB0049308631EB260800EE
:100C80002000EB01EC016A086C02031D492E690883
:100C90006B0203180800ED01EE0100306E02963081
:100CA00003196D020318612E000001302000ED07CA
:100CB0000030EE3D00306E02963003196D02031CC9
:100CC000542E0130EB070030EC3D432E21008D12F5
:100CD0000D128D110D118D100D100C128C120F10A4
:100CE0008F100F118F110F128F120F138F132200FD
:100CF0008D120D128D110D118D100D100C128C1204
:100D00000F108F100F118F110F128F120F138F13DF
:100D1000080087317727863187317F2786318731F1
:100D20006E278631873158278631873117278631DC
:100D30008731022786318631BC2686318631662688
:100D4000863187318927080020006D086C0403195B
:100D5000080020006A0886006B08870001088731B8
:100D60003C27863101302000EA070030EB3D01309E
:100D7000EC020030ED3BA42E21001014901410154D
:100D80009015101690161017901726008C140C153D
:100D90008C150C168C160C178C170D1621000C14C4
:100DA0008C140C158C1508002000EA0103100C1897
:100DB0000314EA0D03108C180314EA0D03100C1928
:100DC0000314EA0D03108C190314EA0D6A08E900F4
:100DD0006908F00008002000ED006B086A040319A0
:100DE00008006D0886008701010887312C278631AD
:100DF00001302000EC006C08ED070130EA02003001
:100E0000EB3BED2E26008D1127008D11333029008C
:100E1000930094010830970026008D100D152030A6
:100E200029009600903095002100941608002100BA
:100E30008E1222008E12333023009B009C0108305A
:100E40009F0021000E138E17203023009E0090304B
:100E50009D002100911608002000E9002900961C41
:100E60002E2F27008D152000690829009200961C5E
:100E7000372F27008D1108002000E90023009E1C59
:100E80003E2F22008E162000690823009A009E1C27
:100E9000472F22008E1208006400800101310130CA
:100EA000FE020030FF3B7F087E04031900344D2F03
:100EB000E03020009700C0309600413098002100BB
:100EC000111420001810080020001814C001C101DE
:100ED000C401C501C601C201C301080021000E11F1
:100EE0008E110E1222000E158E150E16080070308F
:100EF000210099001708C1391C3897000800230009
:100F00008C01900128008C018D0108008631D426C7
:080F100008000B178B17080005
:020000040001F9
:04000E00FCDFEFFE26
:00000001FF
